:100113004153444647484A4B4C5A584356424E4D26
:05012300003132330041
:10014F005389F0758CFC758A17C28DD28CD2A9D2C7
:02015F00AF22CD
:0B012800C2A1C2928F80120133D2925C
:080133007F027EEFDEFEDFFC1F
:01013B0022A1
:080190007F367EC7DEFEDFFCB6
:010198002244
:080199007FA27E5BDEFEDFFCAD
:0101A100223B
:1000D100C2A0D2A1C29212012EAD80120133C292EE
:0500E100120133AF0520
:0100E60022F7
:1000E700D2A0D2A1C29212012EAD80120133C292C8
:0500F700120133AF050A
:0100FC0022E1
:0A017C00C2A0120128C29202013352
:0A018600D2A0120128C29202013338
:050161007F3812017C53
:090166001200E77E00EF20E7FC27
:01016F00226D
:100048001201997F3812017C1201907F3812017CCD
:100058001201901201611201617F0C12017C1201E0
:0E006800667F0612017C1201667F0102017C98
:1000FD00AE07BE0104ED148006BE0209ED243F4497
:06010D0080FF12017C22BC
:0A0076008F088B098A0A890BAC057C
:10008000120166AD04AF081200FDE4FDAB09AA0A37
:10009000A90B8D827583001200A4FF6006120186F1
:0300A0000D80E9E7
:0100A300223A
:10000E0012014F1200487BFF7A0179137D017F01A7
:10001E001200767BFF7A0179247D067F021200762C
:10002E00C3E50D94E8E50C940340DB1201667F1CDA
:0A003E0012017CE4F50CF50D80CCF6
:03000B0002013CB3
:10013C00C0E0758CFC758A17050DE50D7002050C79
:03014C00D0E032CE
:030000000201708A
:0C017000787FE4F6D8FD75810D02000ECA
:1000A400BB010CE58229F582E5833AF583E0225011
:1000B40006E92582F8E622BBFE06E92582F8E2225B
:0D00C400E58229F582E5833AF583E4932275
:00000001FF
